{
  "contractName": "DreamCompanyContract",
  "abi": [
    {
      "inputs": [
        {
          "internalType": "address payable",
          "name": "_student",
          "type": "address"
        },
        {
          "internalType": "address payable",
          "name": "_teacher",
          "type": "address"
        },
        {
          "internalType": "address",
          "name": "_dreamCompany",
          "type": "address"
        },
        {
          "internalType": "uint256",
          "name": "_contractAmount",
          "type": "uint256"
        }
      ],
      "stateMutability": "nonpayable",
      "type": "constructor"
    },
    {
      "inputs": [],
      "name": "contractAmount",
      "outputs": [
        {
          "internalType": "uint256",
          "name": "",
          "type": "uint256"
        }
      ],
      "stateMutability": "view",
      "type": "function"
    },
    {
      "inputs": [],
      "name": "dreamCompany",
      "outputs": [
        {
          "internalType": "address",
          "name": "",
          "type": "address"
        }
      ],
      "stateMutability": "view",
      "type": "function"
    },
    {
      "inputs": [],
      "name": "isHired",
      "outputs": [
        {
          "internalType": "bool",
          "name": "",
          "type": "bool"
        }
      ],
      "stateMutability": "view",
      "type": "function"
    },
    {
      "inputs": [],
      "name": "student",
      "outputs": [
        {
          "internalType": "address payable",
          "name": "",
          "type": "address"
        }
      ],
      "stateMutability": "view",
      "type": "function"
    },
    {
      "inputs": [],
      "name": "teacher",
      "outputs": [
        {
          "internalType": "address payable",
          "name": "",
          "type": "address"
        }
      ],
      "stateMutability": "view",
      "type": "function"
    },
    {
      "inputs": [],
      "name": "hire",
      "outputs": [],
      "stateMutability": "nonpayable",
      "type": "function"
    },
    {
      "inputs": [],
      "name": "payTeacher",
      "outputs": [],
      "stateMutability": "nonpayable",
      "type": "function"
    }
  ],
  "bytecode": "0x608060405234801561000f575f80fd5b506040516107bd3803806107bd833981810160405281019061003191906101e5565b835f806101000a81548173ffffffffffffffffffffffffffffffffffffffff021916908373ffffffffffffffffffffffffffffffffffffffff1602179055508260015f6101000a81548173ffffffffffffffffffffffffffffffffffffffff021916908373ffffffffffffffffffffffffffffffffffffffff1602179055508160025f6101000a81548173ffffffffffffffffffffffffffffffffffffffff021916908373ffffffffffffffffffffffffffffffffffffffff160217905550806003819055505f60045f6101000a81548160ff02191690831515021790555050505050610249565b5f80fd5b5f73ffffffffffffffffffffffffffffffffffffffff82169050919050565b5f6101468261011d565b9050919050565b6101568161013c565b8114610160575f80fd5b50565b5f815190506101718161014d565b92915050565b5f6101818261011d565b9050919050565b61019181610177565b811461019b575f80fd5b50565b5f815190506101ac81610188565b92915050565b5f819050919050565b6101c4816101b2565b81146101ce575f80fd5b50565b5f815190506101df816101bb565b92915050565b5f805f80608085870312156101fd576101fc610119565b5b5f61020a87828801610163565b945050602061021b87828801610163565b935050604061022c8782880161019e565b925050606061023d878288016101d1565b91505092959194509250565b610567806102565f395ff3fe608060405234801561000f575f80fd5b506004361061007b575f3560e01c80636b80733b116100595780636b80733b146100c557806380d7e6d3146100cf57806394dd8831146100ed578063b46bff891461010b5761007b565b80632745a9fb1461007f578063565a57ca14610089578063699450e8146100a7575b5f80fd5b610087610129565b005b6100916101d4565b60405161009e9190610328565b60405180910390f35b6100af6101da565b6040516100bc9190610380565b60405180910390f35b6100cd6101fd565b005b6100d76102b4565b6040516100e491906103b9565b60405180910390f35b6100f56102d9565b60405161010291906103ec565b60405180910390f35b6101136102eb565b6040516101209190610380565b60405180910390f35b60025f9054906101000a900473ffffffffffffffffffffffffffffffffffffffff1673ffffffffffffffffffffffffffffffffffffffff163373ffffffffffffffffffffffffffffffffffffffff16146101b8576040517f08c379a00000000000000000000000000000000000000000000000000000000081526004016101af90610485565b60405180910390fd5b600160045f6101000a81548160ff021916908315150217905550565b60035481565b5f8054906101000a900473ffffffffffffffffffffffffffffffffffffffff1681565b60045f9054906101000a900460ff1661024b576040517f08c379a000000000000000000000000000000000000000000000000000000000815260040161024290610513565b60405180910390fd5b60015f9054906101000a900473ffffffffffffffffffffffffffffffffffffffff1673ffffffffffffffffffffffffffffffffffffffff166108fc60035490811502906040515f60405180830381858888f193505050501580156102b1573d5f803e3d5ffd5b50565b60025f9054906101000a900473ffffffffffffffffffffffffffffffffffffffff1681565b60045f9054906101000a900460ff1681565b60015f9054906101000a900473ffffffffffffffffffffffffffffffffffffffff1681565b5f819050919050565b61032281610310565b82525050565b5f60208201905061033b5f830184610319565b92915050565b5f73ffffffffffffffffffffffffffffffffffffffff82169050919050565b5f61036a82610341565b9050919050565b61037a81610360565b82525050565b5f6020820190506103935f830184610371565b92915050565b5f6103a382610341565b9050919050565b6103b381610399565b82525050565b5f6020820190506103cc5f8301846103aa565b92915050565b5f8115159050919050565b6103e6816103d2565b82525050565b5f6020820190506103ff5f8301846103dd565b92915050565b5f82825260208201905092915050565b7f4f6e6c792074686520647265616d20636f6d70616e792063616e2074726967675f8201527f65722074686520686972652066756e6374696f6e000000000000000000000000602082015250565b5f61046f603483610405565b915061047a82610415565b604082019050919050565b5f6020820190508181035f83015261049c81610463565b9050919050565b7f5468652073747564656e74206d757374206265206869726564206265666f72655f8201527f206d616b696e6720746865207061796d656e7400000000000000000000000000602082015250565b5f6104fd603383610405565b9150610508826104a3565b604082019050919050565b5f6020820190508181035f83015261052a816104f1565b905091905056fea2646970667358221220dda8985c2c435af0a553f0615b2668d131716f035ab7bbf7a455391e6ef1553164736f6c63430008140033",
  "immutableReferences": {},
  "source": "// SPDX-License-Identifier: MIT\npragma solidity >=0.4.22 <0.9.0;\n\ncontract DreamCompanyContract {\n  address payable public student;\n  address payable public teacher;\n  address public dreamCompany;\n  uint public contractAmount;\n  bool public isHired;\n\n  constructor(address payable _student,address payable _teacher, address _dreamCompany, uint _contractAmount ){\n    student = _student;\n    teacher = _teacher;\n    dreamCompany = _dreamCompany;\n    contractAmount = _contractAmount;\n    isHired = false; \n  }\n\n  function hire() external{\n    require(msg.sender == dreamCompany,\"Only the dream company can trigger the hire function\");\n    isHired = true;\n  }\n\n  function payTeacher() external{\n    require(isHired,\"The student must be hired before making the payment\");\n    teacher.transfer(contractAmount);\n  }\n}\n",
  "sourcePath": "/Users/aniket/Desktop/YoutubeProjects/dreamCompany/contracts/DreamCompany.sol",
  "compiler": {
    "name": "solc",
    "version": "0.8.20+commit.a1b79de6.Emscripten.clang"
  },
  "schemaVersion": "3.4.14",
  "updatedAt": "2023-06-27T09:31:43.184Z",
  "devdoc": {
    "kind": "dev",
    "methods": {},
    "version": 1
  },
  "userdoc": {
    "kind": "user",
    "methods": {},
    "version": 1
  }
}